{
  "_format": "hh-sol-artifact-1",
  "contractName": "Lock",
  "sourceName": "contracts/chai.sol",
  "abi": [
    {
      "inputs": [],
      "stateMutability": "nonpayable",
      "type": "constructor"
    },
    {
      "inputs": [
        {
          "internalType": "string",
          "name": "name",
          "type": "string"
        },
        {
          "internalType": "string",
          "name": "message",
          "type": "string"
        }
      ],
      "name": "buyChai",
      "outputs": [],
      "stateMutability": "payable",
      "type": "function"
    },
    {
      "inputs": [],
      "name": "getMemos",
      "outputs": [
        {
          "components": [
            {
              "internalType": "string",
              "name": "name",
              "type": "string"
            },
            {
              "internalType": "string",
              "name": "message",
              "type": "string"
            },
            {
              "internalType": "address",
              "name": "from",
              "type": "address"
            },
            {
              "internalType": "uint256",
              "name": "timestamp",
              "type": "uint256"
            }
          ],
          "internalType": "struct Lock.Memo[]",
          "name": "",
          "type": "tuple[]"
        }
      ],
      "stateMutability": "view",
      "type": "function"
    },
    {
      "inputs": [],
      "name": "owner",
      "outputs": [
        {
          "internalType": "address payable",
          "name": "",
          "type": "address"
        }
      ],
      "stateMutability": "view",
      "type": "function"
    }
  ],
  "bytecode": "0x6080604052348015600f57600080fd5b5033600160006101000a81548173ffffffffffffffffffffffffffffffffffffffff021916908373ffffffffffffffffffffffffffffffffffffffff160217905550610d2d806100606000396000f3fe6080604052600436106100345760003560e01c80636a13d85914610039578063865c5172146100555780638da5cb5b14610080575b600080fd5b610053600480360381019061004e919061062f565b6100ab565b005b34801561006157600080fd5b5061006a61023c565b60405161007791906108ac565b60405180910390f35b34801561008c57600080fd5b506100956104af565b6040516100a291906108ef565b60405180910390f35b600034116100ee576040517f08c379a00000000000000000000000000000000000000000000000000000000081526004016100e590610967565b60405180910390fd5b600160009054906101000a900473ffffffffffffffffffffffffffffffffffffffff1673ffffffffffffffffffffffffffffffffffffffff166108fc349081150290604051600060405180830381858888f19350505050158015610156573d6000803e3d6000fd5b50600060405180608001604052808481526020018381526020013373ffffffffffffffffffffffffffffffffffffffff16815260200142815250908060018154018082558091505060019003906000526020600020906004020160009091909190915060008201518160000190816101ce9190610b93565b5060208201518160010190816101e49190610b93565b5060408201518160020160006101000a81548173ffffffffffffffffffffffffffffffffffffffff021916908373ffffffffffffffffffffffffffffffffffffffff1602179055506060820151816003015550505050565b6060600160009054906101000a900473ffffffffffffffffffffffffffffffffffffffff1673ffffffffffffffffffffffffffffffffffffffff163373ffffffffffffffffffffffffffffffffffffffff16146102ce576040517f08c379a00000000000000000000000000000000000000000000000000000000081526004016102c590610cd7565b60405180910390fd5b6000805480602002602001604051908101604052809291908181526020016000905b828210156104a65783829060005260206000209060040201604051806080016040529081600082018054610323906109b6565b80601f016020809104026020016040519081016040528092919081815260200182805461034f906109b6565b801561039c5780601f106103715761010080835404028352916020019161039c565b820191906000526020600020905b81548152906001019060200180831161037f57829003601f168201915b505050505081526020016001820180546103b5906109b6565b80601f01602080910402602001604051908101604052809291908181526020018280546103e1906109b6565b801561042e5780601f106104035761010080835404028352916020019161042e565b820191906000526020600020905b81548152906001019060200180831161041157829003601f168201915b505050505081526020016002820160009054906101000a900473ffffffffffffffffffffffffffffffffffffffff1673ffffffffffffffffffffffffffffffffffffffff1673ffffffffffffffffffffffffffffffffffffffff168152602001600382015481525050815260200190600101906102f0565b50505050905090565b600160009054906101000a900473ffffffffffffffffffffffffffffffffffffffff1681565b6000604051905090565b600080fd5b600080fd5b600080fd5b600080fd5b6000601f19601f8301169050919050565b7f4e487b7100000000000000000000000000000000000000000000000000000000600052604160045260246000fd5b61053c826104f3565b810181811067ffffffffffffffff8211171561055b5761055a610504565b5b80604052505050565b600061056e6104d5565b905061057a8282610533565b919050565b600067ffffffffffffffff82111561059a57610599610504565b5b6105a3826104f3565b9050602081019050919050565b82818337600083830152505050565b60006105d26105cd8461057f565b610564565b9050828152602081018484840111156105ee576105ed6104ee565b5b6105f98482856105b0565b509392505050565b600082601f830112610616576106156104e9565b5b81356106268482602086016105bf565b91505092915050565b60008060408385031215610646576106456104df565b5b600083013567ffffffffffffffff811115610664576106636104e4565b5b61067085828601610601565b925050602083013567ffffffffffffffff811115610691576106906104e4565b5b61069d85828601610601565b9150509250929050565b600081519050919050565b600082825260208201905092915050565b6000819050602082019050919050565b600081519050919050565b600082825260208201905092915050565b60005b8381101561070d5780820151818401526020810190506106f2565b60008484015250505050565b6000610724826106d3565b61072e81856106de565b935061073e8185602086016106ef565b610747816104f3565b840191505092915050565b600073ffffffffffffffffffffffffffffffffffffffff82169050919050565b600061077d82610752565b9050919050565b61078d81610772565b82525050565b6000819050919050565b6107a681610793565b82525050565b600060808301600083015184820360008601526107c98282610719565b915050602083015184820360208601526107e38282610719565b91505060408301516107f86040860182610784565b50606083015161080b606086018261079d565b508091505092915050565b600061082283836107ac565b905092915050565b6000602082019050919050565b6000610842826106a7565b61084c81856106b2565b93508360208202850161085e856106c3565b8060005b8581101561089a578484038952815161087b8582610816565b94506108868361082a565b925060208a01995050600181019050610862565b50829750879550505050505092915050565b600060208201905081810360008301526108c68184610837565b905092915050565b60006108d982610752565b9050919050565b6108e9816108ce565b82525050565b600060208201905061090460008301846108e0565b92915050565b600082825260208201905092915050565b7f596f75206d7573742073656e6420736f6d652045746865722100000000000000600082015250565b600061095160198361090a565b915061095c8261091b565b602082019050919050565b6000602082019050818103600083015261098081610944565b9050919050565b7f4e487b7100000000000000000000000000000000000000000000000000000000600052602260045260246000fd5b600060028204905060018216806109ce57607f821691505b6020821081036109e1576109e0610987565b5b50919050565b60008190508160005260206000209050919050565b60006020601f8301049050919050565b600082821b905092915050565b600060088302610a497fffffffffffffffffffffffffffffffffffffffffffffffffffffffffffffffff82610a0c565b610a538683610a0c565b95508019841693508086168417925050509392505050565b6000819050919050565b6000610a90610a8b610a8684610793565b610a6b565b610793565b9050919050565b6000819050919050565b610aaa83610a75565b610abe610ab682610a97565b848454610a19565b825550505050565b600090565b610ad3610ac6565b610ade818484610aa1565b505050565b5b81811015610b0257610af7600082610acb565b600181019050610ae4565b5050565b601f821115610b4757610b18816109e7565b610b21846109fc565b81016020851015610b30578190505b610b44610b3c856109fc565b830182610ae3565b50505b505050565b600082821c905092915050565b6000610b6a60001984600802610b4c565b1980831691505092915050565b6000610b838383610b59565b9150826002028217905092915050565b610b9c826106d3565b67ffffffffffffffff811115610bb557610bb4610504565b5b610bbf82546109b6565b610bca828285610b06565b600060209050601f831160018114610bfd5760008415610beb578287015190505b610bf58582610b77565b865550610c5d565b601f198416610c0b866109e7565b60005b82811015610c3357848901518255600182019150602085019450602081019050610c0e565b86831015610c505784890151610c4c601f891682610b59565b8355505b6001600288020188555050505b505050505050565b7f4f6e6c79206f776e65722063616e2061636365737320746869732066756e637460008201527f696f6e0000000000000000000000000000000000000000000000000000000000602082015250565b6000610cc160238361090a565b9150610ccc82610c65565b604082019050919050565b60006020820190508181036000830152610cf081610cb4565b905091905056fea26469706673582212201f8df5ed1c0539657900662220dc31bc3a33836d8505f596d9813e25a09ce46564736f6c634300081e0033",
  "linkReferences": {},
  "deployedLinkReferences": {}
}