{
  "_format": "hh-sol-artifact-1",
  "contractName": "Dcms",
  "sourceName": "contracts/demoDegreeNFT.sol",
  "abi": [
    {
      "inputs": [
        {
          "internalType": "address",
          "name": "initialOwner",
          "type": "address"
        }
      ],
      "stateMutability": "nonpayable",
      "type": "constructor"
    },
    {
      "inputs": [
        {
          "internalType": "address",
          "name": "sender",
          "type": "address"
        },
        {
          "internalType": "uint256",
          "name": "tokenId",
          "type": "uint256"
        },
        {
          "internalType": "address",
          "name": "owner",
          "type": "address"
        }
      ],
      "name": "ERC721IncorrectOwner",
      "type": "error"
    },
    {
      "inputs": [
        {
          "internalType": "address",
          "name": "operator",
          "type": "address"
        },
        {
          "internalType": "uint256",
          "name": "tokenId",
          "type": "uint256"
        }
      ],
      "name": "ERC721InsufficientApproval",
      "type": "error"
    },
    {
      "inputs": [
        {
          "internalType": "address",
          "name": "approver",
          "type": "address"
        }
      ],
      "name": "ERC721InvalidApprover",
      "type": "error"
    },
    {
      "inputs": [
        {
          "internalType": "address",
          "name": "operator",
          "type": "address"
        }
      ],
      "name": "ERC721InvalidOperator",
      "type": "error"
    },
    {
      "inputs": [
        {
          "internalType": "address",
          "name": "owner",
          "type": "address"
        }
      ],
      "name": "ERC721InvalidOwner",
      "type": "error"
    },
    {
      "inputs": [
        {
          "internalType": "address",
          "name": "receiver",
          "type": "address"
        }
      ],
      "name": "ERC721InvalidReceiver",
      "type": "error"
    },
    {
      "inputs": [
        {
          "internalType": "address",
          "name": "sender",
          "type": "address"
        }
      ],
      "name": "ERC721InvalidSender",
      "type": "error"
    },
    {
      "inputs": [
        {
          "internalType": "uint256",
          "name": "tokenId",
          "type": "uint256"
        }
      ],
      "name": "ERC721NonexistentToken",
      "type": "error"
    },
    {
      "inputs": [
        {
          "internalType": "address",
          "name": "owner",
          "type": "address"
        }
      ],
      "name": "OwnableInvalidOwner",
      "type": "error"
    },
    {
      "inputs": [
        {
          "internalType": "address",
          "name": "account",
          "type": "address"
        }
      ],
      "name": "OwnableUnauthorizedAccount",
      "type": "error"
    },
    {
      "anonymous": false,
      "inputs": [
        {
          "indexed": true,
          "internalType": "address",
          "name": "owner",
          "type": "address"
        },
        {
          "indexed": true,
          "internalType": "address",
          "name": "approved",
          "type": "address"
        },
        {
          "indexed": true,
          "internalType": "uint256",
          "name": "tokenId",
          "type": "uint256"
        }
      ],
      "name": "Approval",
      "type": "event"
    },
    {
      "anonymous": false,
      "inputs": [
        {
          "indexed": true,
          "internalType": "address",
          "name": "owner",
          "type": "address"
        },
        {
          "indexed": true,
          "internalType": "address",
          "name": "operator",
          "type": "address"
        },
        {
          "indexed": false,
          "internalType": "bool",
          "name": "approved",
          "type": "bool"
        }
      ],
      "name": "ApprovalForAll",
      "type": "event"
    },
    {
      "anonymous": false,
      "inputs": [
        {
          "indexed": false,
          "internalType": "uint256",
          "name": "_fromTokenId",
          "type": "uint256"
        },
        {
          "indexed": false,
          "internalType": "uint256",
          "name": "_toTokenId",
          "type": "uint256"
        }
      ],
      "name": "BatchMetadataUpdate",
      "type": "event"
    },
    {
      "anonymous": false,
      "inputs": [
        {
          "indexed": true,
          "internalType": "uint256",
          "name": "tokenId",
          "type": "uint256"
        },
        {
          "indexed": true,
          "internalType": "address",
          "name": "student",
          "type": "address"
        },
        {
          "indexed": false,
          "internalType": "uint256",
          "name": "timestamp",
          "type": "uint256"
        }
      ],
      "name": "DegreeIssued",
      "type": "event"
    },
    {
      "anonymous": false,
      "inputs": [
        {
          "indexed": true,
          "internalType": "uint256",
          "name": "tokenId",
          "type": "uint256"
        },
        {
          "indexed": true,
          "internalType": "address",
          "name": "revokedBy",
          "type": "address"
        },
        {
          "indexed": false,
          "internalType": "uint256",
          "name": "timestamp",
          "type": "uint256"
        }
      ],
      "name": "DegreeRevoked",
      "type": "event"
    },
    {
      "anonymous": false,
      "inputs": [
        {
          "indexed": false,
          "internalType": "uint256",
          "name": "_tokenId",
          "type": "uint256"
        }
      ],
      "name": "MetadataUpdate",
      "type": "event"
    },
    {
      "anonymous": false,
      "inputs": [
        {
          "indexed": true,
          "internalType": "address",
          "name": "previousOwner",
          "type": "address"
        },
        {
          "indexed": true,
          "internalType": "address",
          "name": "newOwner",
          "type": "address"
        }
      ],
      "name": "OwnershipTransferred",
      "type": "event"
    },
    {
      "anonymous": false,
      "inputs": [
        {
          "indexed": true,
          "internalType": "address",
          "name": "from",
          "type": "address"
        },
        {
          "indexed": true,
          "internalType": "address",
          "name": "to",
          "type": "address"
        },
        {
          "indexed": true,
          "internalType": "uint256",
          "name": "tokenId",
          "type": "uint256"
        }
      ],
      "name": "Transfer",
      "type": "event"
    },
    {
      "inputs": [
        {
          "internalType": "address",
          "name": "to",
          "type": "address"
        },
        {
          "internalType": "uint256",
          "name": "tokenId",
          "type": "uint256"
        }
      ],
      "name": "approve",
      "outputs": [],
      "stateMutability": "nonpayable",
      "type": "function"
    },
    {
      "inputs": [
        {
          "internalType": "address",
          "name": "owner",
          "type": "address"
        }
      ],
      "name": "balanceOf",
      "outputs": [
        {
          "internalType": "uint256",
          "name": "",
          "type": "uint256"
        }
      ],
      "stateMutability": "view",
      "type": "function"
    },
    {
      "inputs": [],
      "name": "currentTokenId",
      "outputs": [
        {
          "internalType": "uint256",
          "name": "",
          "type": "uint256"
        }
      ],
      "stateMutability": "view",
      "type": "function"
    },
    {
      "inputs": [
        {
          "internalType": "uint256",
          "name": "tokenId",
          "type": "uint256"
        }
      ],
      "name": "getApproved",
      "outputs": [
        {
          "internalType": "address",
          "name": "",
          "type": "address"
        }
      ],
      "stateMutability": "view",
      "type": "function"
    },
    {
      "inputs": [
        {
          "internalType": "address",
          "name": "owner",
          "type": "address"
        },
        {
          "internalType": "address",
          "name": "operator",
          "type": "address"
        }
      ],
      "name": "isApprovedForAll",
      "outputs": [
        {
          "internalType": "bool",
          "name": "",
          "type": "bool"
        }
      ],
      "stateMutability": "view",
      "type": "function"
    },
    {
      "inputs": [
        {
          "internalType": "uint256",
          "name": "tokenId",
          "type": "uint256"
        }
      ],
      "name": "isRevoked",
      "outputs": [
        {
          "internalType": "bool",
          "name": "",
          "type": "bool"
        }
      ],
      "stateMutability": "view",
      "type": "function"
    },
    {
      "inputs": [],
      "name": "name",
      "outputs": [
        {
          "internalType": "string",
          "name": "",
          "type": "string"
        }
      ],
      "stateMutability": "view",
      "type": "function"
    },
    {
      "inputs": [],
      "name": "owner",
      "outputs": [
        {
          "internalType": "address",
          "name": "",
          "type": "address"
        }
      ],
      "stateMutability": "view",
      "type": "function"
    },
    {
      "inputs": [
        {
          "internalType": "uint256",
          "name": "tokenId",
          "type": "uint256"
        }
      ],
      "name": "ownerOf",
      "outputs": [
        {
          "internalType": "address",
          "name": "",
          "type": "address"
        }
      ],
      "stateMutability": "view",
      "type": "function"
    },
    {
      "inputs": [],
      "name": "renounceOwnership",
      "outputs": [],
      "stateMutability": "nonpayable",
      "type": "function"
    },
    {
      "inputs": [
        {
          "internalType": "uint256",
          "name": "tokenId",
          "type": "uint256"
        },
        {
          "internalType": "address",
          "name": "expectedOwner",
          "type": "address"
        }
      ],
      "name": "revokeDegree",
      "outputs": [],
      "stateMutability": "nonpayable",
      "type": "function"
    },
    {
      "inputs": [
        {
          "internalType": "uint256",
          "name": "",
          "type": "uint256"
        }
      ],
      "name": "revoked",
      "outputs": [
        {
          "internalType": "bool",
          "name": "",
          "type": "bool"
        }
      ],
      "stateMutability": "view",
      "type": "function"
    },
    {
      "inputs": [
        {
          "internalType": "address",
          "name": "to",
          "type": "address"
        },
        {
          "internalType": "string",
          "name": "uri",
          "type": "string"
        }
      ],
      "name": "safeMint",
      "outputs": [
        {
          "internalType": "uint256",
          "name": "",
          "type": "uint256"
        }
      ],
      "stateMutability": "nonpayable",
      "type": "function"
    },
    {
      "inputs": [
        {
          "internalType": "address",
          "name": "from",
          "type": "address"
        },
        {
          "internalType": "address",
          "name": "to",
          "type": "address"
        },
        {
          "internalType": "uint256",
          "name": "tokenId",
          "type": "uint256"
        }
      ],
      "name": "safeTransferFrom",
      "outputs": [],
      "stateMutability": "nonpayable",
      "type": "function"
    },
    {
      "inputs": [
        {
          "internalType": "address",
          "name": "from",
          "type": "address"
        },
        {
          "internalType": "address",
          "name": "to",
          "type": "address"
        },
        {
          "internalType": "uint256",
          "name": "tokenId",
          "type": "uint256"
        },
        {
          "internalType": "bytes",
          "name": "data",
          "type": "bytes"
        }
      ],
      "name": "safeTransferFrom",
      "outputs": [],
      "stateMutability": "nonpayable",
      "type": "function"
    },
    {
      "inputs": [
        {
          "internalType": "address",
          "name": "operator",
          "type": "address"
        },
        {
          "internalType": "bool",
          "name": "approved",
          "type": "bool"
        }
      ],
      "name": "setApprovalForAll",
      "outputs": [],
      "stateMutability": "nonpayable",
      "type": "function"
    },
    {
      "inputs": [
        {
          "internalType": "bytes4",
          "name": "interfaceId",
          "type": "bytes4"
        }
      ],
      "name": "supportsInterface",
      "outputs": [
        {
          "internalType": "bool",
          "name": "",
          "type": "bool"
        }
      ],
      "stateMutability": "view",
      "type": "function"
    },
    {
      "inputs": [],
      "name": "symbol",
      "outputs": [
        {
          "internalType": "string",
          "name": "",
          "type": "string"
        }
      ],
      "stateMutability": "view",
      "type": "function"
    },
    {
      "inputs": [
        {
          "internalType": "uint256",
          "name": "tokenId",
          "type": "uint256"
        }
      ],
      "name": "tokenOwner",
      "outputs": [
        {
          "internalType": "address",
          "name": "",
          "type": "address"
        }
      ],
      "stateMutability": "view",
      "type": "function"
    },
    {
      "inputs": [
        {
          "internalType": "uint256",
          "name": "tokenId",
          "type": "uint256"
        }
      ],
      "name": "tokenURI",
      "outputs": [
        {
          "internalType": "string",
          "name": "",
          "type": "string"
        }
      ],
      "stateMutability": "view",
      "type": "function"
    },
    {
      "inputs": [
        {
          "internalType": "address",
          "name": "from",
          "type": "address"
        },
        {
          "internalType": "address",
          "name": "to",
          "type": "address"
        },
        {
          "internalType": "uint256",
          "name": "tokenId",
          "type": "uint256"
        }
      ],
      "name": "transferFrom",
      "outputs": [],
      "stateMutability": "nonpayable",
      "type": "function"
    },
    {
      "inputs": [
        {
          "internalType": "address",
          "name": "newOwner",
          "type": "address"
        }
      ],
      "name": "transferOwnership",
      "outputs": [],
      "stateMutability": "nonpayable",
      "type": "function"
    }
  ],
  "bytecode": "0x608060405234801561001057600080fd5b5060405161326038038061326083398181016040528101906100329190610272565b806040518060400160405280600481526020017f64636d73000000000000000000000000000000000000000000000000000000008152506040518060400160405280600481526020017f44434d530000000000000000000000000000000000000000000000000000000081525081600090816100ae91906104ef565b5080600190816100be91906104ef565b505050600073ffffffffffffffffffffffffffffffffffffffff168173ffffffffffffffffffffffffffffffffffffffff16036101335760006040517f1e4fbdf700000000000000000000000000000000000000000000000000000000815260040161012a91906105d0565b60405180910390fd5b6101428161014960201b60201c565b50506105eb565b6000600760009054906101000a900473ffffffffffffffffffffffffffffffffffffffff16905081600760006101000a81548173ffffffffffffffffffffffffffffffffffffffff021916908373ffffffffffffffffffffffffffffffffffffffff1602179055508173ffffffffffffffffffffffffffffffffffffffff168173ffffffffffffffffffffffffffffffffffffffff167f8be0079c531659141344cd1fd0a4f28419497f9722a3daafe3b4186f6b6457e060405160405180910390a35050565b600080fd5b600073ffffffffffffffffffffffffffffffffffffffff82169050919050565b600061023f82610214565b9050919050565b61024f81610234565b811461025a57600080fd5b50565b60008151905061026c81610246565b92915050565b6000602082840312156102885761028761020f565b5b60006102968482850161025d565b91505092915050565b600081519050919050565b7f4e487b7100000000000000000000000000000000000000000000000000000000600052604160045260246000fd5b7f4e487b7100000000000000000000000000000000000000000000000000000000600052602260045260246000fd5b6000600282049050600182168061032057607f821691505b602082108103610333576103326102d9565b5b50919050565b60008190508160005260206000209050919050565b60006020601f8301049050919050565b600082821b905092915050565b60006008830261039b7fffffffffffffffffffffffffffffffffffffffffffffffffffffffffffffffff8261035e565b6103a5868361035e565b95508019841693508086168417925050509392505050565b6000819050919050565b6000819050919050565b60006103ec6103e76103e2846103bd565b6103c7565b6103bd565b9050919050565b6000819050919050565b610406836103d1565b61041a610412826103f3565b84845461036b565b825550505050565b600090565b61042f610422565b61043a8184846103fd565b505050565b5b8181101561045e57610453600082610427565b600181019050610440565b5050565b601f8211156104a35761047481610339565b61047d8461034e565b8101602085101561048c578190505b6104a06104988561034e565b83018261043f565b50505b505050565b600082821c905092915050565b60006104c6600019846008026104a8565b1980831691505092915050565b60006104df83836104b5565b9150826002028217905092915050565b6104f88261029f565b67ffffffffffffffff811115610511576105106102aa565b5b61051b8254610308565b610526828285610462565b600060209050601f8311600181146105595760008415610547578287015190505b61055185826104d3565b8655506105b9565b601f19841661056786610339565b60005b8281101561058f5784890151825560018201915060208501945060208101905061056a565b868310156105ac57848901516105a8601f8916826104b5565b8355505b6001600288020188555050505b505050505050565b6105ca81610234565b82525050565b60006020820190506105e560008301846105c1565b92915050565b612c66806105fa6000396000f3fe608060405234801561001057600080fd5b50600436106101415760003560e01c8063715018a6116100b8578063c87b56dd1161007c578063c87b56dd14610374578063d204c45e146103a4578063d5b141e7146103d4578063e04ca88514610404578063e985e9c514610420578063f2fde38b1461045057610141565b8063715018a6146102f65780638da5cb5b1461030057806395d89b411461031e578063a22cb4651461033c578063b88d4fde1461035857610141565b80631caaa4871161010a5780631caaa487146101fe57806323b872dd1461022e57806342842e0e1461024a5780635ccc561e146102665780636352211e1461029657806370a08231146102c657610141565b80629a9b7b1461014657806301ffc9a71461016457806306fdde0314610194578063081812fc146101b2578063095ea7b3146101e2575b600080fd5b61014e61046c565b60405161015b9190611e7b565b60405180910390f35b61017e60048036038101906101799190611f02565b610476565b60405161018b9190611f4a565b60405180910390f35b61019c610488565b6040516101a99190611ff5565b60405180910390f35b6101cc60048036038101906101c79190612043565b61051a565b6040516101d991906120b1565b60405180910390f35b6101fc60048036038101906101f791906120f8565b610536565b005b61021860048036038101906102139190612043565b61054c565b60405161022591906120b1565b60405180910390f35b61024860048036038101906102439190612138565b61055e565b005b610264600480360381019061025f9190612138565b610660565b005b610280600480360381019061027b9190612043565b610680565b60405161028d9190611f4a565b60405180910390f35b6102b060048036038101906102ab9190612043565b6106aa565b6040516102bd91906120b1565b60405180910390f35b6102e060048036038101906102db919061218b565b6106bc565b6040516102ed9190611e7b565b60405180910390f35b6102fe610776565b005b61030861078a565b60405161031591906120b1565b60405180910390f35b6103266107b4565b6040516103339190611ff5565b60405180910390f35b610356600480360381019061035191906121e4565b610846565b005b610372600480360381019061036d9190612359565b61085c565b005b61038e60048036038101906103899190612043565b610881565b60405161039b9190611ff5565b60405180910390f35b6103be60048036038101906103b9919061247d565b6108dc565b6040516103cb9190611e7b565b60405180910390f35b6103ee60048036038101906103e99190612043565b61096e565b6040516103fb9190611f4a565b60405180910390f35b61041e600480360381019061041991906124d9565b61098e565b005b61043a60048036038101906104359190612519565b610b63565b6040516104479190611f4a565b60405180910390f35b61046a6004803603810190610465919061218b565b610bf7565b005b6000600854905090565b600061048182610c7d565b9050919050565b60606000805461049790612588565b80601f01602080910402602001604051908101604052809291908181526020018280546104c390612588565b80156105105780601f106104e557610100808354040283529160200191610510565b820191906000526020600020905b8154815290600101906020018083116104f357829003601f168201915b5050505050905090565b600061052582610cde565b5061052f82610d66565b9050919050565b6105488282610543610da3565b610dab565b5050565b600061055782610dbd565b9050919050565b600073ffffffffffffffffffffffffffffffffffffffff168273ffffffffffffffffffffffffffffffffffffffff16036105d05760006040517f64a0ae920000000000000000000000000000000000000000000000000000000081526004016105c791906120b1565b60405180910390fd5b60006105e483836105df610da3565b610dfa565b90508373ffffffffffffffffffffffffffffffffffffffff168173ffffffffffffffffffffffffffffffffffffffff161461065a578382826040517f64283d7b000000000000000000000000000000000000000000000000000000008152600401610651939291906125b9565b60405180910390fd5b50505050565b61067b8383836040518060200160405280600081525061085c565b505050565b60006009600083815260200190815260200160002060009054906101000a900460ff169050919050565b60006106b582610cde565b9050919050565b60008073ffffffffffffffffffffffffffffffffffffffff168273ffffffffffffffffffffffffffffffffffffffff160361072f5760006040517f89c62b6400000000000000000000000000000000000000000000000000000000815260040161072691906120b1565b60405180910390fd5b600360008373ffffffffffffffffffffffffffffffffffffffff1673ffffffffffffffffffffffffffffffffffffffff168152602001908152602001600020549050919050565b61077e611014565b610788600061109b565b565b6000600760009054906101000a900473ffffffffffffffffffffffffffffffffffffffff16905090565b6060600180546107c390612588565b80601f01602080910402602001604051908101604052809291908181526020018280546107ef90612588565b801561083c5780601f106108115761010080835404028352916020019161083c565b820191906000526020600020905b81548152906001019060200180831161081f57829003601f168201915b5050505050905090565b610858610851610da3565b8383611161565b5050565b61086784848461055e565b61087b610872610da3565b858585856112d0565b50505050565b606061088c82610680565b156108cc576040517f08c379a00000000000000000000000000000000000000000000000000000000081526004016108c39061263c565b60405180910390fd5b6108d582611481565b9050919050565b60006108e6611014565b6000600860008154809291906108fb9061268b565b91905055905061090b8482611594565b61091581846115b2565b8373ffffffffffffffffffffffffffffffffffffffff16817facba16e5e4a6e713dd57c980ef9b1d62d0175689f9611844b2d7f4ed70836a194260405161095c9190611e7b565b60405180910390a38091505092915050565b60096020528060005260406000206000915054906101000a900460ff1681565b610996611014565b600073ffffffffffffffffffffffffffffffffffffffff166109b783610dbd565b73ffffffffffffffffffffffffffffffffffffffff1603610a0d576040517f08c379a0000000000000000000000000000000000000000000000000000000008152600401610a049061271f565b60405180910390fd5b8073ffffffffffffffffffffffffffffffffffffffff16610a2d836106aa565b73ffffffffffffffffffffffffffffffffffffffff1614610a83576040517f08c379a0000000000000000000000000000000000000000000000000000000008152600401610a7a9061278b565b60405180910390fd5b6009600083815260200190815260200160002060009054906101000a900460ff1615610ae4576040517f08c379a0000000000000000000000000000000000000000000000000000000008152600401610adb906127f7565b60405180910390fd5b60016009600084815260200190815260200160002060006101000a81548160ff0219169083151502179055503373ffffffffffffffffffffffffffffffffffffffff16827f932ee0b4b2abbd34af0ffd5aaf6c034f0d66e25940bac5761fd715e908557a8e42604051610b579190611e7b565b60405180910390a35050565b6000600560008473ffffffffffffffffffffffffffffffffffffffff1673ffffffffffffffffffffffffffffffffffffffff16815260200190815260200160002060008373ffffffffffffffffffffffffffffffffffffffff1673ffffffffffffffffffffffffffffffffffffffff16815260200190815260200160002060009054906101000a900460ff16905092915050565b610bff611014565b600073ffffffffffffffffffffffffffffffffffffffff168173ffffffffffffffffffffffffffffffffffffffff1603610c715760006040517f1e4fbdf7000000000000000000000000000000000000000000000000000000008152600401610c6891906120b1565b60405180910390fd5b610c7a8161109b565b50565b6000634906490660e01b7bffffffffffffffffffffffffffffffffffffffffffffffffffffffff1916827bffffffffffffffffffffffffffffffffffffffffffffffffffffffff19161480610cd75750610cd68261160e565b5b9050919050565b600080610cea83610dbd565b9050600073ffffffffffffffffffffffffffffffffffffffff168173ffffffffffffffffffffffffffffffffffffffff1603610d5d57826040517f7e273289000000000000000000000000000000000000000000000000000000008152600401610d549190611e7b565b60405180910390fd5b80915050919050565b60006004600083815260200190815260200160002060009054906101000a900473ffffffffffffffffffffffffffffffffffffffff169050919050565b600033905090565b610db883838360016116f0565b505050565b60006002600083815260200190815260200160002060009054906101000a900473ffffffffffffffffffffffffffffffffffffffff169050919050565b600080610e0684610dbd565b9050600073ffffffffffffffffffffffffffffffffffffffff168373ffffffffffffffffffffffffffffffffffffffff1614610e4857610e478184866118b5565b5b600073ffffffffffffffffffffffffffffffffffffffff168173ffffffffffffffffffffffffffffffffffffffff1614610ed957610e8a6000856000806116f0565b6001600360008373ffffffffffffffffffffffffffffffffffffffff1673ffffffffffffffffffffffffffffffffffffffff168152602001908152602001600020600082825403925050819055505b600073ffffffffffffffffffffffffffffffffffffffff168573ffffffffffffffffffffffffffffffffffffffff1614610f5c576001600360008773ffffffffffffffffffffffffffffffffffffffff1673ffffffffffffffffffffffffffffffffffffffff168152602001908152602001600020600082825401925050819055505b846002600086815260200190815260200160002060006101000a81548173ffffffffffffffffffffffffffffffffffffffff021916908373ffffffffffffffffffffffffffffffffffffffff160217905550838573ffffffffffffffffffffffffffffffffffffffff168273ffffffffffffffffffffffffffffffffffffffff167fddf252ad1be2c89b69c2b068fc378daa952ba7f163c4a11628f55a4df523b3ef60405160405180910390a4809150509392505050565b61101c610da3565b73ffffffffffffffffffffffffffffffffffffffff1661103a61078a565b73ffffffffffffffffffffffffffffffffffffffff16146110995761105d610da3565b6040517f118cdaa700000000000000000000000000000000000000000000000000000000815260040161109091906120b1565b60405180910390fd5b565b6000600760009054906101000a900473ffffffffffffffffffffffffffffffffffffffff16905081600760006101000a81548173ffffffffffffffffffffffffffffffffffffffff021916908373ffffffffffffffffffffffffffffffffffffffff1602179055508173ffffffffffffffffffffffffffffffffffffffff168173ffffffffffffffffffffffffffffffffffffffff167f8be0079c531659141344cd1fd0a4f28419497f9722a3daafe3b4186f6b6457e060405160405180910390a35050565b600073ffffffffffffffffffffffffffffffffffffffff168273ffffffffffffffffffffffffffffffffffffffff16036111d257816040517f5b08ba180000000000000000000000000000000000000000000000000000000081526004016111c991906120b1565b60405180910390fd5b80600560008573ffffffffffffffffffffffffffffffffffffffff1673ffffffffffffffffffffffffffffffffffffffff16815260200190815260200160002060008473ffffffffffffffffffffffffffffffffffffffff1673ffffffffffffffffffffffffffffffffffffffff16815260200190815260200160002060006101000a81548160ff0219169083151502179055508173ffffffffffffffffffffffffffffffffffffffff168373ffffffffffffffffffffffffffffffffffffffff167f17307eab39ab6107e8899845ad3d59bd9653f200f220920489ca2b5937696c31836040516112c39190611f4a565b60405180910390a3505050565b60008373ffffffffffffffffffffffffffffffffffffffff163b111561147a578273ffffffffffffffffffffffffffffffffffffffff1663150b7a02868685856040518563ffffffff1660e01b815260040161132f949392919061286c565b6020604051808303816000875af192505050801561136b57506040513d601f19601f8201168201806040525081019061136891906128cd565b60015b6113ef573d806000811461139b576040519150601f19603f3d011682016040523d82523d6000602084013e6113a0565b606091505b5060008151036113e757836040517f64a0ae920000000000000000000000000000000000000000000000000000000081526004016113de91906120b1565b60405180910390fd5b805160208201fd5b63150b7a0260e01b7bffffffffffffffffffffffffffffffffffffffffffffffffffffffff1916817bffffffffffffffffffffffffffffffffffffffffffffffffffffffff19161461147857836040517f64a0ae9200000000000000000000000000000000000000000000000000000000815260040161146f91906120b1565b60405180910390fd5b505b5050505050565b606061148c82610cde565b5060006006600084815260200190815260200160002080546114ad90612588565b80601f01602080910402602001604051908101604052809291908181526020018280546114d990612588565b80156115265780601f106114fb57610100808354040283529160200191611526565b820191906000526020600020905b81548152906001019060200180831161150957829003601f168201915b505050505090506000611537611979565b9050600081510361154c57819250505061158f565b600082511115611581578082604051602001611569929190612936565b6040516020818303038152906040529250505061158f565b61158a84611990565b925050505b919050565b6115ae8282604051806020016040528060008152506119f9565b5050565b806006600084815260200190815260200160002090816115d29190612b06565b507ff8e1a15aba9398e019f0b49df1a4fde98ee17ae345cb5f6b5e2c27f5033e8ce7826040516116029190611e7b565b60405180910390a15050565b60007f80ac58cd000000000000000000000000000000000000000000000000000000007bffffffffffffffffffffffffffffffffffffffffffffffffffffffff1916827bffffffffffffffffffffffffffffffffffffffffffffffffffffffff191614806116d957507f5b5e139f000000000000000000000000000000000000000000000000000000007bffffffffffffffffffffffffffffffffffffffffffffffffffffffff1916827bffffffffffffffffffffffffffffffffffffffffffffffffffffffff1916145b806116e957506116e882611a1d565b5b9050919050565b80806117295750600073ffffffffffffffffffffffffffffffffffffffff168273ffffffffffffffffffffffffffffffffffffffff1614155b1561185d57600061173984610cde565b9050600073ffffffffffffffffffffffffffffffffffffffff168373ffffffffffffffffffffffffffffffffffffffff16141580156117a457508273ffffffffffffffffffffffffffffffffffffffff168173ffffffffffffffffffffffffffffffffffffffff1614155b80156117b757506117b58184610b63565b155b156117f957826040517fa9fbf51f0000000000000000000000000000000000000000000000000000000081526004016117f091906120b1565b60405180910390fd5b811561185b57838573ffffffffffffffffffffffffffffffffffffffff168273ffffffffffffffffffffffffffffffffffffffff167f8c5be1e5ebec7d5bd14f71427d1e84f3dd0314c0f7b2291e5b200ac8c7c3b92560405160405180910390a45b505b836004600085815260200190815260200160002060006101000a81548173ffffffffffffffffffffffffffffffffffffffff021916908373ffffffffffffffffffffffffffffffffffffffff16021790555050505050565b6118c0838383611a87565b61197457600073ffffffffffffffffffffffffffffffffffffffff168373ffffffffffffffffffffffffffffffffffffffff160361193557806040517f7e27328900000000000000000000000000000000000000000000000000000000815260040161192c9190611e7b565b60405180910390fd5b81816040517f177e802f00000000000000000000000000000000000000000000000000000000815260040161196b929190612bd8565b60405180910390fd5b505050565b606060405180602001604052806000815250905090565b606061199b82610cde565b5060006119a6611979565b905060008151116119c657604051806020016040528060008152506119f1565b806119d084611b48565b6040516020016119e1929190612936565b6040516020818303038152906040525b915050919050565b611a038383611c16565b611a18611a0e610da3565b60008585856112d0565b505050565b60007f01ffc9a7000000000000000000000000000000000000000000000000000000007bffffffffffffffffffffffffffffffffffffffffffffffffffffffff1916827bffffffffffffffffffffffffffffffffffffffffffffffffffffffff1916149050919050565b60008073ffffffffffffffffffffffffffffffffffffffff168373ffffffffffffffffffffffffffffffffffffffff1614158015611b3f57508273ffffffffffffffffffffffffffffffffffffffff168473ffffffffffffffffffffffffffffffffffffffff161480611b005750611aff8484610b63565b5b80611b3e57508273ffffffffffffffffffffffffffffffffffffffff16611b2683610d66565b73ffffffffffffffffffffffffffffffffffffffff16145b5b90509392505050565b606060006001611b5784611d0f565b01905060008167ffffffffffffffff811115611b7657611b7561222e565b5b6040519080825280601f01601f191660200182016040528015611ba85781602001600182028036833780820191505090505b509050600082602083010190505b600115611c0b578080600190039150507f3031323334353637383961626364656600000000000000000000000000000000600a86061a8153600a8581611bff57611bfe612c01565b5b04945060008503611bb6575b819350505050919050565b600073ffffffffffffffffffffffffffffffffffffffff168273ffffffffffffffffffffffffffffffffffffffff1603611c885760006040517f64a0ae92000000000000000000000000000000000000000000000000000000008152600401611c7f91906120b1565b60405180910390fd5b6000611c9683836000610dfa565b9050600073ffffffffffffffffffffffffffffffffffffffff168173ffffffffffffffffffffffffffffffffffffffff1614611d0a5760006040517f73c6ac6e000000000000000000000000000000000000000000000000000000008152600401611d0191906120b1565b60405180910390fd5b505050565b600080600090507a184f03e93ff9f4daa797ed6e38ed64bf6a1f0100000000000000008310611d6d577a184f03e93ff9f4daa797ed6e38ed64bf6a1f0100000000000000008381611d6357611d62612c01565b5b0492506040810190505b6d04ee2d6d415b85acef81000000008310611daa576d04ee2d6d415b85acef81000000008381611da057611d9f612c01565b5b0492506020810190505b662386f26fc100008310611dd957662386f26fc100008381611dcf57611dce612c01565b5b0492506010810190505b6305f5e1008310611e02576305f5e1008381611df857611df7612c01565b5b0492506008810190505b6127108310611e27576127108381611e1d57611e1c612c01565b5b0492506004810190505b60648310611e4a5760648381611e4057611e3f612c01565b5b0492506002810190505b600a8310611e59576001810190505b80915050919050565b6000819050919050565b611e7581611e62565b82525050565b6000602082019050611e906000830184611e6c565b92915050565b6000604051905090565b600080fd5b600080fd5b60007fffffffff0000000000000000000000000000000000000000000000000000000082169050919050565b611edf81611eaa565b8114611eea57600080fd5b50565b600081359050611efc81611ed6565b92915050565b600060208284031215611f1857611f17611ea0565b5b6000611f2684828501611eed565b91505092915050565b60008115159050919050565b611f4481611f2f565b82525050565b6000602082019050611f5f6000830184611f3b565b92915050565b600081519050919050565b600082825260208201905092915050565b60005b83811015611f9f578082015181840152602081019050611f84565b60008484015250505050565b6000601f19601f8301169050919050565b6000611fc782611f65565b611fd18185611f70565b9350611fe1818560208601611f81565b611fea81611fab565b840191505092915050565b6000602082019050818103600083015261200f8184611fbc565b905092915050565b61202081611e62565b811461202b57600080fd5b50565b60008135905061203d81612017565b92915050565b60006020828403121561205957612058611ea0565b5b60006120678482850161202e565b91505092915050565b600073ffffffffffffffffffffffffffffffffffffffff82169050919050565b600061209b82612070565b9050919050565b6120ab81612090565b82525050565b60006020820190506120c660008301846120a2565b92915050565b6120d581612090565b81146120e057600080fd5b50565b6000813590506120f2816120cc565b92915050565b6000806040838503121561210f5761210e611ea0565b5b600061211d858286016120e3565b925050602061212e8582860161202e565b9150509250929050565b60008060006060848603121561215157612150611ea0565b5b600061215f868287016120e3565b9350506020612170868287016120e3565b92505060406121818682870161202e565b9150509250925092565b6000602082840312156121a1576121a0611ea0565b5b60006121af848285016120e3565b91505092915050565b6121c181611f2f565b81146121cc57600080fd5b50565b6000813590506121de816121b8565b92915050565b600080604083850312156121fb576121fa611ea0565b5b6000612209858286016120e3565b925050602061221a858286016121cf565b9150509250929050565b600080fd5b600080fd5b7f4e487b7100000000000000000000000000000000000000000000000000000000600052604160045260246000fd5b61226682611fab565b810181811067ffffffffffffffff821117156122855761228461222e565b5b80604052505050565b6000612298611e96565b90506122a4828261225d565b919050565b600067ffffffffffffffff8211156122c4576122c361222e565b5b6122cd82611fab565b9050602081019050919050565b82818337600083830152505050565b60006122fc6122f7846122a9565b61228e565b90508281526020810184848401111561231857612317612229565b5b6123238482856122da565b509392505050565b600082601f8301126123405761233f612224565b5b81356123508482602086016122e9565b91505092915050565b6000806000806080858703121561237357612372611ea0565b5b6000612381878288016120e3565b9450506020612392878288016120e3565b93505060406123a38782880161202e565b925050606085013567ffffffffffffffff8111156123c4576123c3611ea5565b5b6123d08782880161232b565b91505092959194509250565b600067ffffffffffffffff8211156123f7576123f661222e565b5b61240082611fab565b9050602081019050919050565b600061242061241b846123dc565b61228e565b90508281526020810184848401111561243c5761243b612229565b5b6124478482856122da565b509392505050565b600082601f83011261246457612463612224565b5b813561247484826020860161240d565b91505092915050565b6000806040838503121561249457612493611ea0565b5b60006124a2858286016120e3565b925050602083013567ffffffffffffffff8111156124c3576124c2611ea5565b5b6124cf8582860161244f565b9150509250929050565b600080604083850312156124f0576124ef611ea0565b5b60006124fe8582860161202e565b925050602061250f858286016120e3565b9150509250929050565b600080604083850312156125305761252f611ea0565b5b600061253e858286016120e3565b925050602061254f858286016120e3565b9150509250929050565b7f4e487b7100000000000000000000000000000000000000000000000000000000600052602260045260246000fd5b600060028204905060018216806125a057607f821691505b6020821081036125b3576125b2612559565b5b50919050565b60006060820190506125ce60008301866120a2565b6125db6020830185611e6c565b6125e860408301846120a2565b949350505050565b7f446567726565206973207265766f6b6564000000000000000000000000000000600082015250565b6000612626601183611f70565b9150612631826125f0565b602082019050919050565b6000602082019050818103600083015261265581612619565b9050919050565b7f4e487b7100000000000000000000000000000000000000000000000000000000600052601160045260246000fd5b600061269682611e62565b91507fffffffffffffffffffffffffffffffffffffffffffffffffffffffffffffffff82036126c8576126c761265c565b5b600182019050919050565b7f44656772656520646f6573206e6f742065786973740000000000000000000000600082015250565b6000612709601583611f70565b9150612714826126d3565b602082019050919050565b60006020820190508181036000830152612738816126fc565b9050919050565b7f496e76616c6964206f776e657220616464726573730000000000000000000000600082015250565b6000612775601583611f70565b91506127808261273f565b602082019050919050565b600060208201905081810360008301526127a481612768565b9050919050565b7f44656772656520616c7265616479207265766f6b656400000000000000000000600082015250565b60006127e1601683611f70565b91506127ec826127ab565b602082019050919050565b60006020820190508181036000830152612810816127d4565b9050919050565b600081519050919050565b600082825260208201905092915050565b600061283e82612817565b6128488185612822565b9350612858818560208601611f81565b61286181611fab565b840191505092915050565b600060808201905061288160008301876120a2565b61288e60208301866120a2565b61289b6040830185611e6c565b81810360608301526128ad8184612833565b905095945050505050565b6000815190506128c781611ed6565b92915050565b6000602082840312156128e3576128e2611ea0565b5b60006128f1848285016128b8565b91505092915050565b600081905092915050565b600061291082611f65565b61291a81856128fa565b935061292a818560208601611f81565b80840191505092915050565b60006129428285612905565b915061294e8284612905565b91508190509392505050565b60008190508160005260206000209050919050565b60006020601f8301049050919050565b600082821b905092915050565b6000600883026129bc7fffffffffffffffffffffffffffffffffffffffffffffffffffffffffffffffff8261297f565b6129c6868361297f565b95508019841693508086168417925050509392505050565b6000819050919050565b6000612a036129fe6129f984611e62565b6129de565b611e62565b9050919050565b6000819050919050565b612a1d836129e8565b612a31612a2982612a0a565b84845461298c565b825550505050565b600090565b612a46612a39565b612a51818484612a14565b505050565b5b81811015612a7557612a6a600082612a3e565b600181019050612a57565b5050565b601f821115612aba57612a8b8161295a565b612a948461296f565b81016020851015612aa3578190505b612ab7612aaf8561296f565b830182612a56565b50505b505050565b600082821c905092915050565b6000612add60001984600802612abf565b1980831691505092915050565b6000612af68383612acc565b9150826002028217905092915050565b612b0f82611f65565b67ffffffffffffffff811115612b2857612b2761222e565b5b612b328254612588565b612b3d828285612a79565b600060209050601f831160018114612b705760008415612b5e578287015190505b612b688582612aea565b865550612bd0565b601f198416612b7e8661295a565b60005b82811015612ba657848901518255600182019150602085019450602081019050612b81565b86831015612bc35784890151612bbf601f891682612acc565b8355505b6001600288020188555050505b505050505050565b6000604082019050612bed60008301856120a2565b612bfa6020830184611e6c565b9392505050565b7f4e487b7100000000000000000000000000000000000000000000000000000000600052601260045260246000fdfea2646970667358221220e7e0400f6d127b995e1a7b5ee6dfccd3dd30fd73ed8ee89a8d00e963772ad0ff64736f6c634300081e0033",
  "linkReferences": {},
  "deployedLinkReferences": {}
}