{
  "_format": "hh-sol-artifact-1",
  "contractName": "DegreeNFT",
  "sourceName": "contracts/degreeNFT.sol",
  "abi": [
    {
      "inputs": [
        {
          "internalType": "string",
          "name": "name_",
          "type": "string"
        },
        {
          "internalType": "string",
          "name": "symbol_",
          "type": "string"
        }
      ],
      "stateMutability": "nonpayable",
      "type": "constructor"
    },
    {
      "inputs": [
        {
          "internalType": "address",
          "name": "sender",
          "type": "address"
        },
        {
          "internalType": "uint256",
          "name": "tokenId",
          "type": "uint256"
        },
        {
          "internalType": "address",
          "name": "owner",
          "type": "address"
        }
      ],
      "name": "ERC721IncorrectOwner",
      "type": "error"
    },
    {
      "inputs": [
        {
          "internalType": "address",
          "name": "operator",
          "type": "address"
        },
        {
          "internalType": "uint256",
          "name": "tokenId",
          "type": "uint256"
        }
      ],
      "name": "ERC721InsufficientApproval",
      "type": "error"
    },
    {
      "inputs": [
        {
          "internalType": "address",
          "name": "approver",
          "type": "address"
        }
      ],
      "name": "ERC721InvalidApprover",
      "type": "error"
    },
    {
      "inputs": [
        {
          "internalType": "address",
          "name": "operator",
          "type": "address"
        }
      ],
      "name": "ERC721InvalidOperator",
      "type": "error"
    },
    {
      "inputs": [
        {
          "internalType": "address",
          "name": "owner",
          "type": "address"
        }
      ],
      "name": "ERC721InvalidOwner",
      "type": "error"
    },
    {
      "inputs": [
        {
          "internalType": "address",
          "name": "receiver",
          "type": "address"
        }
      ],
      "name": "ERC721InvalidReceiver",
      "type": "error"
    },
    {
      "inputs": [
        {
          "internalType": "address",
          "name": "sender",
          "type": "address"
        }
      ],
      "name": "ERC721InvalidSender",
      "type": "error"
    },
    {
      "inputs": [
        {
          "internalType": "uint256",
          "name": "tokenId",
          "type": "uint256"
        }
      ],
      "name": "ERC721NonexistentToken",
      "type": "error"
    },
    {
      "inputs": [
        {
          "internalType": "address",
          "name": "owner",
          "type": "address"
        }
      ],
      "name": "OwnableInvalidOwner",
      "type": "error"
    },
    {
      "inputs": [
        {
          "internalType": "address",
          "name": "account",
          "type": "address"
        }
      ],
      "name": "OwnableUnauthorizedAccount",
      "type": "error"
    },
    {
      "anonymous": false,
      "inputs": [
        {
          "indexed": true,
          "internalType": "address",
          "name": "owner",
          "type": "address"
        },
        {
          "indexed": true,
          "internalType": "address",
          "name": "approved",
          "type": "address"
        },
        {
          "indexed": true,
          "internalType": "uint256",
          "name": "tokenId",
          "type": "uint256"
        }
      ],
      "name": "Approval",
      "type": "event"
    },
    {
      "anonymous": false,
      "inputs": [
        {
          "indexed": true,
          "internalType": "address",
          "name": "owner",
          "type": "address"
        },
        {
          "indexed": true,
          "internalType": "address",
          "name": "operator",
          "type": "address"
        },
        {
          "indexed": false,
          "internalType": "bool",
          "name": "approved",
          "type": "bool"
        }
      ],
      "name": "ApprovalForAll",
      "type": "event"
    },
    {
      "anonymous": false,
      "inputs": [
        {
          "indexed": false,
          "internalType": "uint256",
          "name": "_fromTokenId",
          "type": "uint256"
        },
        {
          "indexed": false,
          "internalType": "uint256",
          "name": "_toTokenId",
          "type": "uint256"
        }
      ],
      "name": "BatchMetadataUpdate",
      "type": "event"
    },
    {
      "anonymous": false,
      "inputs": [
        {
          "indexed": true,
          "internalType": "address",
          "name": "to",
          "type": "address"
        },
        {
          "indexed": true,
          "internalType": "uint256",
          "name": "tokenId",
          "type": "uint256"
        },
        {
          "indexed": false,
          "internalType": "string",
          "name": "tokenURI",
          "type": "string"
        }
      ],
      "name": "DegreeIssued",
      "type": "event"
    },
    {
      "anonymous": false,
      "inputs": [
        {
          "indexed": false,
          "internalType": "uint256",
          "name": "_tokenId",
          "type": "uint256"
        }
      ],
      "name": "MetadataUpdate",
      "type": "event"
    },
    {
      "anonymous": false,
      "inputs": [
        {
          "indexed": true,
          "internalType": "address",
          "name": "previousOwner",
          "type": "address"
        },
        {
          "indexed": true,
          "internalType": "address",
          "name": "newOwner",
          "type": "address"
        }
      ],
      "name": "OwnershipTransferred",
      "type": "event"
    },
    {
      "anonymous": false,
      "inputs": [
        {
          "indexed": true,
          "internalType": "address",
          "name": "from",
          "type": "address"
        },
        {
          "indexed": true,
          "internalType": "address",
          "name": "to",
          "type": "address"
        },
        {
          "indexed": true,
          "internalType": "uint256",
          "name": "tokenId",
          "type": "uint256"
        }
      ],
      "name": "Transfer",
      "type": "event"
    },
    {
      "inputs": [
        {
          "internalType": "address",
          "name": "to",
          "type": "address"
        },
        {
          "internalType": "uint256",
          "name": "tokenId",
          "type": "uint256"
        }
      ],
      "name": "approve",
      "outputs": [],
      "stateMutability": "nonpayable",
      "type": "function"
    },
    {
      "inputs": [
        {
          "internalType": "address",
          "name": "owner",
          "type": "address"
        }
      ],
      "name": "balanceOf",
      "outputs": [
        {
          "internalType": "uint256",
          "name": "",
          "type": "uint256"
        }
      ],
      "stateMutability": "view",
      "type": "function"
    },
    {
      "inputs": [
        {
          "internalType": "uint256",
          "name": "tokenId",
          "type": "uint256"
        }
      ],
      "name": "getApproved",
      "outputs": [
        {
          "internalType": "address",
          "name": "",
          "type": "address"
        }
      ],
      "stateMutability": "view",
      "type": "function"
    },
    {
      "inputs": [
        {
          "internalType": "address",
          "name": "owner",
          "type": "address"
        },
        {
          "internalType": "address",
          "name": "operator",
          "type": "address"
        }
      ],
      "name": "isApprovedForAll",
      "outputs": [
        {
          "internalType": "bool",
          "name": "",
          "type": "bool"
        }
      ],
      "stateMutability": "view",
      "type": "function"
    },
    {
      "inputs": [
        {
          "internalType": "address",
          "name": "to",
          "type": "address"
        },
        {
          "internalType": "string",
          "name": "tokenURI_",
          "type": "string"
        }
      ],
      "name": "issueDegree",
      "outputs": [
        {
          "internalType": "uint256",
          "name": "",
          "type": "uint256"
        }
      ],
      "stateMutability": "nonpayable",
      "type": "function"
    },
    {
      "inputs": [],
      "name": "name",
      "outputs": [
        {
          "internalType": "string",
          "name": "",
          "type": "string"
        }
      ],
      "stateMutability": "view",
      "type": "function"
    },
    {
      "inputs": [],
      "name": "nextTokenId",
      "outputs": [
        {
          "internalType": "uint256",
          "name": "",
          "type": "uint256"
        }
      ],
      "stateMutability": "view",
      "type": "function"
    },
    {
      "inputs": [
        {
          "internalType": "address",
          "name": "",
          "type": "address"
        },
        {
          "internalType": "uint256",
          "name": "",
          "type": "uint256"
        }
      ],
      "name": "ownedDegrees",
      "outputs": [
        {
          "internalType": "uint256",
          "name": "",
          "type": "uint256"
        }
      ],
      "stateMutability": "view",
      "type": "function"
    },
    {
      "inputs": [],
      "name": "owner",
      "outputs": [
        {
          "internalType": "address",
          "name": "",
          "type": "address"
        }
      ],
      "stateMutability": "view",
      "type": "function"
    },
    {
      "inputs": [
        {
          "internalType": "uint256",
          "name": "tokenId",
          "type": "uint256"
        }
      ],
      "name": "ownerOf",
      "outputs": [
        {
          "internalType": "address",
          "name": "",
          "type": "address"
        }
      ],
      "stateMutability": "view",
      "type": "function"
    },
    {
      "inputs": [],
      "name": "renounceOwnership",
      "outputs": [],
      "stateMutability": "nonpayable",
      "type": "function"
    },
    {
      "inputs": [
        {
          "internalType": "address",
          "name": "from",
          "type": "address"
        },
        {
          "internalType": "address",
          "name": "to",
          "type": "address"
        },
        {
          "internalType": "uint256",
          "name": "tokenId",
          "type": "uint256"
        }
      ],
      "name": "safeTransferFrom",
      "outputs": [],
      "stateMutability": "nonpayable",
      "type": "function"
    },
    {
      "inputs": [
        {
          "internalType": "address",
          "name": "from",
          "type": "address"
        },
        {
          "internalType": "address",
          "name": "to",
          "type": "address"
        },
        {
          "internalType": "uint256",
          "name": "tokenId",
          "type": "uint256"
        },
        {
          "internalType": "bytes",
          "name": "data",
          "type": "bytes"
        }
      ],
      "name": "safeTransferFrom",
      "outputs": [],
      "stateMutability": "nonpayable",
      "type": "function"
    },
    {
      "inputs": [
        {
          "internalType": "address",
          "name": "operator",
          "type": "address"
        },
        {
          "internalType": "bool",
          "name": "approved",
          "type": "bool"
        }
      ],
      "name": "setApprovalForAll",
      "outputs": [],
      "stateMutability": "nonpayable",
      "type": "function"
    },
    {
      "inputs": [
        {
          "internalType": "bytes4",
          "name": "interfaceId",
          "type": "bytes4"
        }
      ],
      "name": "supportsInterface",
      "outputs": [
        {
          "internalType": "bool",
          "name": "",
          "type": "bool"
        }
      ],
      "stateMutability": "view",
      "type": "function"
    },
    {
      "inputs": [],
      "name": "symbol",
      "outputs": [
        {
          "internalType": "string",
          "name": "",
          "type": "string"
        }
      ],
      "stateMutability": "view",
      "type": "function"
    },
    {
      "inputs": [
        {
          "internalType": "uint256",
          "name": "tokenId",
          "type": "uint256"
        }
      ],
      "name": "tokenURI",
      "outputs": [
        {
          "internalType": "string",
          "name": "",
          "type": "string"
        }
      ],
      "stateMutability": "view",
      "type": "function"
    },
    {
      "inputs": [
        {
          "internalType": "address",
          "name": "from",
          "type": "address"
        },
        {
          "internalType": "address",
          "name": "to",
          "type": "address"
        },
        {
          "internalType": "uint256",
          "name": "tokenId",
          "type": "uint256"
        }
      ],
      "name": "transferFrom",
      "outputs": [],
      "stateMutability": "nonpayable",
      "type": "function"
    },
    {
      "inputs": [
        {
          "internalType": "address",
          "name": "newOwner",
          "type": "address"
        }
      ],
      "name": "transferOwnership",
      "outputs": [],
      "stateMutability": "nonpayable",
      "type": "function"
    }
  ],
  "bytecode": "0x608060405234801561001057600080fd5b50604051612ecc380380612ecc83398181016040528101906100329190610323565b338282816000908161004491906105bc565b50806001908161005491906105bc565b505050600073ffffffffffffffffffffffffffffffffffffffff168173ffffffffffffffffffffffffffffffffffffffff16036100c95760006040517f1e4fbdf70000000000000000000000000000000000000000000000000000000081526004016100c091906106cf565b60405180910390fd5b6100d8816100e860201b60201c565b50600160088190555050506106ea565b6000600760009054906101000a900473ffffffffffffffffffffffffffffffffffffffff16905081600760006101000a81548173ffffffffffffffffffffffffffffffffffffffff021916908373ffffffffffffffffffffffffffffffffffffffff1602179055508173ffffffffffffffffffffffffffffffffffffffff168173ffffffffffffffffffffffffffffffffffffffff167f8be0079c531659141344cd1fd0a4f28419497f9722a3daafe3b4186f6b6457e060405160405180910390a35050565b6000604051905090565b600080fd5b600080fd5b600080fd5b600080fd5b6000601f19601f8301169050919050565b7f4e487b7100000000000000000000000000000000000000000000000000000000600052604160045260246000fd5b610215826101cc565b810181811067ffffffffffffffff82111715610234576102336101dd565b5b80604052505050565b60006102476101ae565b9050610253828261020c565b919050565b600067ffffffffffffffff821115610273576102726101dd565b5b61027c826101cc565b9050602081019050919050565b60005b838110156102a757808201518184015260208101905061028c565b60008484015250505050565b60006102c66102c184610258565b61023d565b9050828152602081018484840111156102e2576102e16101c7565b5b6102ed848285610289565b509392505050565b600082601f83011261030a576103096101c2565b5b815161031a8482602086016102b3565b91505092915050565b6000806040838503121561033a576103396101b8565b5b600083015167ffffffffffffffff811115610358576103576101bd565b5b610364858286016102f5565b925050602083015167ffffffffffffffff811115610385576103846101bd565b5b610391858286016102f5565b9150509250929050565b600081519050919050565b7f4e487b7100000000000000000000000000000000000000000000000000000000600052602260045260246000fd5b600060028204905060018216806103ed57607f821691505b602082108103610400576103ff6103a6565b5b50919050565b60008190508160005260206000209050919050565b60006020601f8301049050919050565b600082821b905092915050565b6000600883026104687fffffffffffffffffffffffffffffffffffffffffffffffffffffffffffffffff8261042b565b610472868361042b565b95508019841693508086168417925050509392505050565b6000819050919050565b6000819050919050565b60006104b96104b46104af8461048a565b610494565b61048a565b9050919050565b6000819050919050565b6104d38361049e565b6104e76104df826104c0565b848454610438565b825550505050565b600090565b6104fc6104ef565b6105078184846104ca565b505050565b5b8181101561052b576105206000826104f4565b60018101905061050d565b5050565b601f8211156105705761054181610406565b61054a8461041b565b81016020851015610559578190505b61056d6105658561041b565b83018261050c565b50505b505050565b600082821c905092915050565b600061059360001984600802610575565b1980831691505092915050565b60006105ac8383610582565b9150826002028217905092915050565b6105c58261039b565b67ffffffffffffffff8111156105de576105dd6101dd565b5b6105e882546103d5565b6105f382828561052f565b600060209050601f8311600181146106265760008415610614578287015190505b61061e85826105a0565b865550610686565b601f19841661063486610406565b60005b8281101561065c57848901518255600182019150602085019450602081019050610637565b868310156106795784890151610675601f891682610582565b8355505b6001600288020188555050505b505050505050565b600073ffffffffffffffffffffffffffffffffffffffff82169050919050565b60006106b98261068e565b9050919050565b6106c9816106ae565b82525050565b60006020820190506106e460008301846106c0565b92915050565b6127d3806106f96000396000f3fe608060405234801561001057600080fd5b50600436106101215760003560e01c8063715018a6116100ad578063b88d4fde11610071578063b88d4fde14610308578063c542f2ac14610324578063c87b56dd14610354578063e985e9c514610384578063f2fde38b146103b457610121565b8063715018a61461028857806375794a3c146102925780638da5cb5b146102b057806395d89b41146102ce578063a22cb465146102ec57610121565b806323b872dd116100f457806323b872dd146101c057806324a9e65d146101dc57806342842e0e1461020c5780636352211e1461022857806370a082311461025857610121565b806301ffc9a71461012657806306fdde0314610156578063081812fc14610174578063095ea7b3146101a4575b600080fd5b610140600480360381019061013b9190611c2b565b6103d0565b60405161014d9190611c73565b60405180910390f35b61015e610431565b60405161016b9190611d1e565b60405180910390f35b61018e60048036038101906101899190611d76565b6104c3565b60405161019b9190611de4565b60405180910390f35b6101be60048036038101906101b99190611e2b565b6104df565b005b6101da60048036038101906101d59190611e6b565b6104f5565b005b6101f660048036038101906101f19190611e2b565b6105f7565b6040516102039190611ecd565b60405180910390f35b61022660048036038101906102219190611e6b565b610628565b005b610242600480360381019061023d9190611d76565b610648565b60405161024f9190611de4565b60405180910390f35b610272600480360381019061026d9190611ee8565b61065a565b60405161027f9190611ecd565b60405180910390f35b610290610714565b005b61029a610728565b6040516102a79190611ecd565b60405180910390f35b6102b8610732565b6040516102c59190611de4565b60405180910390f35b6102d661075c565b6040516102e39190611d1e565b60405180910390f35b61030660048036038101906103019190611f41565b6107ee565b005b610322600480360381019061031d91906120b6565b610804565b005b61033e600480360381019061033991906121da565b610829565b60405161034b9190611ecd565b60405180910390f35b61036e60048036038101906103699190611d76565b610921565b60405161037b9190611d1e565b60405180910390f35b61039e60048036038101906103999190612236565b610a34565b6040516103ab9190611c73565b60405180910390f35b6103ce60048036038101906103c99190611ee8565b610ac8565b005b6000634906490660e01b7bffffffffffffffffffffffffffffffffffffffffffffffffffffffff1916827bffffffffffffffffffffffffffffffffffffffffffffffffffffffff1916148061042a575061042982610b4e565b5b9050919050565b606060008054610440906122a5565b80601f016020809104026020016040519081016040528092919081815260200182805461046c906122a5565b80156104b95780601f1061048e576101008083540402835291602001916104b9565b820191906000526020600020905b81548152906001019060200180831161049c57829003601f168201915b5050505050905090565b60006104ce82610c30565b506104d882610cb8565b9050919050565b6104f182826104ec610cf5565b610cfd565b5050565b600073ffffffffffffffffffffffffffffffffffffffff168273ffffffffffffffffffffffffffffffffffffffff16036105675760006040517f64a0ae9200000000000000000000000000000000000000000000000000000000815260040161055e9190611de4565b60405180910390fd5b600061057b8383610576610cf5565b610d0f565b90508373ffffffffffffffffffffffffffffffffffffffff168173ffffffffffffffffffffffffffffffffffffffff16146105f1578382826040517f64283d7b0000000000000000000000000000000000000000000000000000000081526004016105e8939291906122d6565b60405180910390fd5b50505050565b6009602052816000526040600020818154811061061357600080fd5b90600052602060002001600091509150505481565b61064383838360405180602001604052806000815250610804565b505050565b600061065382610c30565b9050919050565b60008073ffffffffffffffffffffffffffffffffffffffff168273ffffffffffffffffffffffffffffffffffffffff16036106cd5760006040517f89c62b640000000000000000000000000000000000000000000000000000000081526004016106c49190611de4565b60405180910390fd5b600360008373ffffffffffffffffffffffffffffffffffffffff1673ffffffffffffffffffffffffffffffffffffffff168152602001908152602001600020549050919050565b61071c610f29565b6107266000610fb0565b565b6000600854905090565b6000600760009054906101000a900473ffffffffffffffffffffffffffffffffffffffff16905090565b60606001805461076b906122a5565b80601f0160208091040260200160405190810160405280929190818152602001828054610797906122a5565b80156107e45780601f106107b9576101008083540402835291602001916107e4565b820191906000526020600020905b8154815290600101906020018083116107c757829003601f168201915b5050505050905090565b6108006107f9610cf5565b8383611076565b5050565b61080f8484846104f5565b61082361081a610cf5565b858585856111e5565b50505050565b6000610833610f29565b6000600860008154809291906108489061233c565b9190505590506108588482611396565b61086281846113b4565b600960008573ffffffffffffffffffffffffffffffffffffffff1673ffffffffffffffffffffffffffffffffffffffff168152602001908152602001600020819080600181540180825580915050600190039060005260206000200160009091909190915055808473ffffffffffffffffffffffffffffffffffffffff167fb60165787f203897490655fc5f538abdc6145d457b1e7606237bcea204b1566b8560405161090f9190611d1e565b60405180910390a38091505092915050565b606061092c82610c30565b50600060066000848152602001908152602001600020805461094d906122a5565b80601f0160208091040260200160405190810160405280929190818152602001828054610979906122a5565b80156109c65780601f1061099b576101008083540402835291602001916109c6565b820191906000526020600020905b8154815290600101906020018083116109a957829003601f168201915b5050505050905060006109d7611410565b905060008151036109ec578192505050610a2f565b600082511115610a21578082604051602001610a099291906123c0565b60405160208183030381529060405292505050610a2f565b610a2a84611427565b925050505b919050565b6000600560008473ffffffffffffffffffffffffffffffffffffffff1673ffffffffffffffffffffffffffffffffffffffff16815260200190815260200160002060008373ffffffffffffffffffffffffffffffffffffffff1673ffffffffffffffffffffffffffffffffffffffff16815260200190815260200160002060009054906101000a900460ff16905092915050565b610ad0610f29565b600073ffffffffffffffffffffffffffffffffffffffff168173ffffffffffffffffffffffffffffffffffffffff1603610b425760006040517f1e4fbdf7000000000000000000000000000000000000000000000000000000008152600401610b399190611de4565b60405180910390fd5b610b4b81610fb0565b50565b60007f80ac58cd000000000000000000000000000000000000000000000000000000007bffffffffffffffffffffffffffffffffffffffffffffffffffffffff1916827bffffffffffffffffffffffffffffffffffffffffffffffffffffffff19161480610c1957507f5b5e139f000000000000000000000000000000000000000000000000000000007bffffffffffffffffffffffffffffffffffffffffffffffffffffffff1916827bffffffffffffffffffffffffffffffffffffffffffffffffffffffff1916145b80610c295750610c2882611490565b5b9050919050565b600080610c3c836114fa565b9050600073ffffffffffffffffffffffffffffffffffffffff168173ffffffffffffffffffffffffffffffffffffffff1603610caf57826040517f7e273289000000000000000000000000000000000000000000000000000000008152600401610ca69190611ecd565b60405180910390fd5b80915050919050565b60006004600083815260200190815260200160002060009054906101000a900473ffffffffffffffffffffffffffffffffffffffff169050919050565b600033905090565b610d0a8383836001611537565b505050565b600080610d1b846114fa565b9050600073ffffffffffffffffffffffffffffffffffffffff168373ffffffffffffffffffffffffffffffffffffffff1614610d5d57610d5c8184866116fc565b5b600073ffffffffffffffffffffffffffffffffffffffff168173ffffffffffffffffffffffffffffffffffffffff1614610dee57610d9f600085600080611537565b6001600360008373ffffffffffffffffffffffffffffffffffffffff1673ffffffffffffffffffffffffffffffffffffffff168152602001908152602001600020600082825403925050819055505b600073ffffffffffffffffffffffffffffffffffffffff168573ffffffffffffffffffffffffffffffffffffffff1614610e71576001600360008773ffffffffffffffffffffffffffffffffffffffff1673ffffffffffffffffffffffffffffffffffffffff168152602001908152602001600020600082825401925050819055505b846002600086815260200190815260200160002060006101000a81548173ffffffffffffffffffffffffffffffffffffffff021916908373ffffffffffffffffffffffffffffffffffffffff160217905550838573ffffffffffffffffffffffffffffffffffffffff168273ffffffffffffffffffffffffffffffffffffffff167fddf252ad1be2c89b69c2b068fc378daa952ba7f163c4a11628f55a4df523b3ef60405160405180910390a4809150509392505050565b610f31610cf5565b73ffffffffffffffffffffffffffffffffffffffff16610f4f610732565b73ffffffffffffffffffffffffffffffffffffffff1614610fae57610f72610cf5565b6040517f118cdaa7000000000000000000000000000000000000000000000000000000008152600401610fa59190611de4565b60405180910390fd5b565b6000600760009054906101000a900473ffffffffffffffffffffffffffffffffffffffff16905081600760006101000a81548173ffffffffffffffffffffffffffffffffffffffff021916908373ffffffffffffffffffffffffffffffffffffffff1602179055508173ffffffffffffffffffffffffffffffffffffffff168173ffffffffffffffffffffffffffffffffffffffff167f8be0079c531659141344cd1fd0a4f28419497f9722a3daafe3b4186f6b6457e060405160405180910390a35050565b600073ffffffffffffffffffffffffffffffffffffffff168273ffffffffffffffffffffffffffffffffffffffff16036110e757816040517f5b08ba180000000000000000000000000000000000000000000000000000000081526004016110de9190611de4565b60405180910390fd5b80600560008573ffffffffffffffffffffffffffffffffffffffff1673ffffffffffffffffffffffffffffffffffffffff16815260200190815260200160002060008473ffffffffffffffffffffffffffffffffffffffff1673ffffffffffffffffffffffffffffffffffffffff16815260200190815260200160002060006101000a81548160ff0219169083151502179055508173ffffffffffffffffffffffffffffffffffffffff168373ffffffffffffffffffffffffffffffffffffffff167f17307eab39ab6107e8899845ad3d59bd9653f200f220920489ca2b5937696c31836040516111d89190611c73565b60405180910390a3505050565b60008373ffffffffffffffffffffffffffffffffffffffff163b111561138f578273ffffffffffffffffffffffffffffffffffffffff1663150b7a02868685856040518563ffffffff1660e01b81526004016112449493929190612439565b6020604051808303816000875af192505050801561128057506040513d601f19601f8201168201806040525081019061127d919061249a565b60015b611304573d80600081146112b0576040519150601f19603f3d011682016040523d82523d6000602084013e6112b5565b606091505b5060008151036112fc57836040517f64a0ae920000000000000000000000000000000000000000000000000000000081526004016112f39190611de4565b60405180910390fd5b805160208201fd5b63150b7a0260e01b7bffffffffffffffffffffffffffffffffffffffffffffffffffffffff1916817bffffffffffffffffffffffffffffffffffffffffffffffffffffffff19161461138d57836040517f64a0ae920000000000000000000000000000000000000000000000000000000081526004016113849190611de4565b60405180910390fd5b505b5050505050565b6113b08282604051806020016040528060008152506117c0565b5050565b806006600084815260200190815260200160002090816113d49190612673565b507ff8e1a15aba9398e019f0b49df1a4fde98ee17ae345cb5f6b5e2c27f5033e8ce7826040516114049190611ecd565b60405180910390a15050565b606060405180602001604052806000815250905090565b606061143282610c30565b50600061143d611410565b9050600081511161145d5760405180602001604052806000815250611488565b80611467846117e4565b6040516020016114789291906123c0565b6040516020818303038152906040525b915050919050565b60007f01ffc9a7000000000000000000000000000000000000000000000000000000007bffffffffffffffffffffffffffffffffffffffffffffffffffffffff1916827bffffffffffffffffffffffffffffffffffffffffffffffffffffffff1916149050919050565b60006002600083815260200190815260200160002060009054906101000a900473ffffffffffffffffffffffffffffffffffffffff169050919050565b80806115705750600073ffffffffffffffffffffffffffffffffffffffff168273ffffffffffffffffffffffffffffffffffffffff1614155b156116a457600061158084610c30565b9050600073ffffffffffffffffffffffffffffffffffffffff168373ffffffffffffffffffffffffffffffffffffffff16141580156115eb57508273ffffffffffffffffffffffffffffffffffffffff168173ffffffffffffffffffffffffffffffffffffffff1614155b80156115fe57506115fc8184610a34565b155b1561164057826040517fa9fbf51f0000000000000000000000000000000000000000000000000000000081526004016116379190611de4565b60405180910390fd5b81156116a257838573ffffffffffffffffffffffffffffffffffffffff168273ffffffffffffffffffffffffffffffffffffffff167f8c5be1e5ebec7d5bd14f71427d1e84f3dd0314c0f7b2291e5b200ac8c7c3b92560405160405180910390a45b505b836004600085815260200190815260200160002060006101000a81548173ffffffffffffffffffffffffffffffffffffffff021916908373ffffffffffffffffffffffffffffffffffffffff16021790555050505050565b6117078383836118b2565b6117bb57600073ffffffffffffffffffffffffffffffffffffffff168373ffffffffffffffffffffffffffffffffffffffff160361177c57806040517f7e2732890000000000000000000000000000000000000000000000000000000081526004016117739190611ecd565b60405180910390fd5b81816040517f177e802f0000000000000000000000000000000000000000000000000000000081526004016117b2929190612745565b60405180910390fd5b505050565b6117ca8383611973565b6117df6117d5610cf5565b60008585856111e5565b505050565b6060600060016117f384611a6c565b01905060008167ffffffffffffffff81111561181257611811611f8b565b5b6040519080825280601f01601f1916602001820160405280156118445781602001600182028036833780820191505090505b509050600082602083010190505b6001156118a7578080600190039150507f3031323334353637383961626364656600000000000000000000000000000000600a86061a8153600a858161189b5761189a61276e565b5b04945060008503611852575b819350505050919050565b60008073ffffffffffffffffffffffffffffffffffffffff168373ffffffffffffffffffffffffffffffffffffffff161415801561196a57508273ffffffffffffffffffffffffffffffffffffffff168473ffffffffffffffffffffffffffffffffffffffff16148061192b575061192a8484610a34565b5b8061196957508273ffffffffffffffffffffffffffffffffffffffff1661195183610cb8565b73ffffffffffffffffffffffffffffffffffffffff16145b5b90509392505050565b600073ffffffffffffffffffffffffffffffffffffffff168273ffffffffffffffffffffffffffffffffffffffff16036119e55760006040517f64a0ae920000000000000000000000000000000000000000000000000000000081526004016119dc9190611de4565b60405180910390fd5b60006119f383836000610d0f565b9050600073ffffffffffffffffffffffffffffffffffffffff168173ffffffffffffffffffffffffffffffffffffffff1614611a675760006040517f73c6ac6e000000000000000000000000000000000000000000000000000000008152600401611a5e9190611de4565b60405180910390fd5b505050565b600080600090507a184f03e93ff9f4daa797ed6e38ed64bf6a1f0100000000000000008310611aca577a184f03e93ff9f4daa797ed6e38ed64bf6a1f0100000000000000008381611ac057611abf61276e565b5b0492506040810190505b6d04ee2d6d415b85acef81000000008310611b07576d04ee2d6d415b85acef81000000008381611afd57611afc61276e565b5b0492506020810190505b662386f26fc100008310611b3657662386f26fc100008381611b2c57611b2b61276e565b5b0492506010810190505b6305f5e1008310611b5f576305f5e1008381611b5557611b5461276e565b5b0492506008810190505b6127108310611b84576127108381611b7a57611b7961276e565b5b0492506004810190505b60648310611ba75760648381611b9d57611b9c61276e565b5b0492506002810190505b600a8310611bb6576001810190505b80915050919050565b6000604051905090565b600080fd5b600080fd5b60007fffffffff0000000000000000000000000000000000000000000000000000000082169050919050565b611c0881611bd3565b8114611c1357600080fd5b50565b600081359050611c2581611bff565b92915050565b600060208284031215611c4157611c40611bc9565b5b6000611c4f84828501611c16565b91505092915050565b60008115159050919050565b611c6d81611c58565b82525050565b6000602082019050611c886000830184611c64565b92915050565b600081519050919050565b600082825260208201905092915050565b60005b83811015611cc8578082015181840152602081019050611cad565b60008484015250505050565b6000601f19601f8301169050919050565b6000611cf082611c8e565b611cfa8185611c99565b9350611d0a818560208601611caa565b611d1381611cd4565b840191505092915050565b60006020820190508181036000830152611d388184611ce5565b905092915050565b6000819050919050565b611d5381611d40565b8114611d5e57600080fd5b50565b600081359050611d7081611d4a565b92915050565b600060208284031215611d8c57611d8b611bc9565b5b6000611d9a84828501611d61565b91505092915050565b600073ffffffffffffffffffffffffffffffffffffffff82169050919050565b6000611dce82611da3565b9050919050565b611dde81611dc3565b82525050565b6000602082019050611df96000830184611dd5565b92915050565b611e0881611dc3565b8114611e1357600080fd5b50565b600081359050611e2581611dff565b92915050565b60008060408385031215611e4257611e41611bc9565b5b6000611e5085828601611e16565b9250506020611e6185828601611d61565b9150509250929050565b600080600060608486031215611e8457611e83611bc9565b5b6000611e9286828701611e16565b9350506020611ea386828701611e16565b9250506040611eb486828701611d61565b9150509250925092565b611ec781611d40565b82525050565b6000602082019050611ee26000830184611ebe565b92915050565b600060208284031215611efe57611efd611bc9565b5b6000611f0c84828501611e16565b91505092915050565b611f1e81611c58565b8114611f2957600080fd5b50565b600081359050611f3b81611f15565b92915050565b60008060408385031215611f5857611f57611bc9565b5b6000611f6685828601611e16565b9250506020611f7785828601611f2c565b9150509250929050565b600080fd5b600080fd5b7f4e487b7100000000000000000000000000000000000000000000000000000000600052604160045260246000fd5b611fc382611cd4565b810181811067ffffffffffffffff82111715611fe257611fe1611f8b565b5b80604052505050565b6000611ff5611bbf565b90506120018282611fba565b919050565b600067ffffffffffffffff82111561202157612020611f8b565b5b61202a82611cd4565b9050602081019050919050565b82818337600083830152505050565b600061205961205484612006565b611feb565b90508281526020810184848401111561207557612074611f86565b5b612080848285612037565b509392505050565b600082601f83011261209d5761209c611f81565b5b81356120ad848260208601612046565b91505092915050565b600080600080608085870312156120d0576120cf611bc9565b5b60006120de87828801611e16565b94505060206120ef87828801611e16565b935050604061210087828801611d61565b925050606085013567ffffffffffffffff81111561212157612120611bce565b5b61212d87828801612088565b91505092959194509250565b600067ffffffffffffffff82111561215457612153611f8b565b5b61215d82611cd4565b9050602081019050919050565b600061217d61217884612139565b611feb565b90508281526020810184848401111561219957612198611f86565b5b6121a4848285612037565b509392505050565b600082601f8301126121c1576121c0611f81565b5b81356121d184826020860161216a565b91505092915050565b600080604083850312156121f1576121f0611bc9565b5b60006121ff85828601611e16565b925050602083013567ffffffffffffffff8111156122205761221f611bce565b5b61222c858286016121ac565b9150509250929050565b6000806040838503121561224d5761224c611bc9565b5b600061225b85828601611e16565b925050602061226c85828601611e16565b9150509250929050565b7f4e487b7100000000000000000000000000000000000000000000000000000000600052602260045260246000fd5b600060028204905060018216806122bd57607f821691505b6020821081036122d0576122cf612276565b5b50919050565b60006060820190506122eb6000830186611dd5565b6122f86020830185611ebe565b6123056040830184611dd5565b949350505050565b7f4e487b7100000000000000000000000000000000000000000000000000000000600052601160045260246000fd5b600061234782611d40565b91507fffffffffffffffffffffffffffffffffffffffffffffffffffffffffffffffff82036123795761237861230d565b5b600182019050919050565b600081905092915050565b600061239a82611c8e565b6123a48185612384565b93506123b4818560208601611caa565b80840191505092915050565b60006123cc828561238f565b91506123d8828461238f565b91508190509392505050565b600081519050919050565b600082825260208201905092915050565b600061240b826123e4565b61241581856123ef565b9350612425818560208601611caa565b61242e81611cd4565b840191505092915050565b600060808201905061244e6000830187611dd5565b61245b6020830186611dd5565b6124686040830185611ebe565b818103606083015261247a8184612400565b905095945050505050565b60008151905061249481611bff565b92915050565b6000602082840312156124b0576124af611bc9565b5b60006124be84828501612485565b91505092915050565b60008190508160005260206000209050919050565b60006020601f8301049050919050565b600082821b905092915050565b6000600883026125297fffffffffffffffffffffffffffffffffffffffffffffffffffffffffffffffff826124ec565b61253386836124ec565b95508019841693508086168417925050509392505050565b6000819050919050565b600061257061256b61256684611d40565b61254b565b611d40565b9050919050565b6000819050919050565b61258a83612555565b61259e61259682612577565b8484546124f9565b825550505050565b600090565b6125b36125a6565b6125be818484612581565b505050565b5b818110156125e2576125d76000826125ab565b6001810190506125c4565b5050565b601f821115612627576125f8816124c7565b612601846124dc565b81016020851015612610578190505b61262461261c856124dc565b8301826125c3565b50505b505050565b600082821c905092915050565b600061264a6000198460080261262c565b1980831691505092915050565b60006126638383612639565b9150826002028217905092915050565b61267c82611c8e565b67ffffffffffffffff81111561269557612694611f8b565b5b61269f82546122a5565b6126aa8282856125e6565b600060209050601f8311600181146126dd57600084156126cb578287015190505b6126d58582612657565b86555061273d565b601f1984166126eb866124c7565b60005b82811015612713578489015182556001820191506020850194506020810190506126ee565b86831015612730578489015161272c601f891682612639565b8355505b6001600288020188555050505b505050505050565b600060408201905061275a6000830185611dd5565b6127676020830184611ebe565b9392505050565b7f4e487b7100000000000000000000000000000000000000000000000000000000600052601260045260246000fdfea264697066735822122096f6204c7ebb621957c0bc3c9567f839205a9f9c86e601413ed84aaf3532ddee64736f6c634300081e0033",
  "linkReferences": {},
  "deployedLinkReferences": {}
}